:100000000C9463000C948B000C948B000C948B006C
:100010000C948B000C948B000C948B000C94E308D4
:100020000C948B000C94D6030C948B000C94BD01A3
:100030000C948B000C948B000C948B000C948B0014
:100040000C94D0090C948B000C94B20C0C94E40C1E
:100050000C948B000C948B000C948B000C948B00F4
:100060000C948B000C948B0000000008000201002F
:100070000003040700000000000000000102040863
:100080001020408001020408102001020408102002
:10009000040404040404040402020202020203032E
:1000A00003030303000000002300260029000000D2
:1000B0000000250028002B0000000000240027007D
:1000C0002A00AB01140D11241FBECFEFD8E0DEBF14
:1000D000CDBF11E0A0E0B1E0EEE6F2E202C0059093
:1000E0000D92AE39B107D9F723E0AEE9B1E001C016
:1000F0001D92A836B207E1F710E0C6ECD0E004C0CC
:100100002297FE010E942211C23CD107C9F70E942A
:10011000580D0C9435110C94000040ED57E060E050
:1001200070E08BE892E00E94370920E835E240E079
:1001300050E06BEC72E08BE892E00E944A098BE899
:1001400092E00E94340964E071E08091BC029091D9
:10015000BD020E94A50D6AE070E080E090E00E9480
:10016000490A41E060E08BE892E00E94B50961E055
:1001700082E00E94D50A61E083E00E94D50A61E036
:1001800084E00E94D50A61E085E00E94D50A61E022
:1001900089E00E94D50A61E086E00E94D50A6AE003
:1001A00070E08EEA91E00E94130360E070E08EEA56
:1001B00091E00E944C0326E040E855E260E070E0E8
:1001C0008BEC92E00E94500C60E08BE00E94D50A1C
:1001D0008DEA91E00E94B60381E090E09093C40123
:1001E0008093C30108951092A00180919E01909187
:1001F0009F018737984829F41092C4011092C301D7
:10020000089581E090E09093C4018093C301089524
:1002100061E082E00E940E0B60E083E00E940E0B22
:1002200061E084E00E940E0B60E085E00C940E0B10
:1002300060E083E00E940E0B60E082E00E940E0B03
:1002400060E085E00E940E0B60E084E00C940E0BF1
:100250008091A00181110EC08091C3019091C401D1
:10026000892B19F40E94080102C00E94180181E044
:100270008093A001089561EA71E08DEA91E00E9407
:100280003C08892BD1F08091A3019091A401909317
:100290009F0180939E010E94F3000E9428016091BB
:1002A0009E0170919F014AE050E08BEC92E00E9429
:1002B000550E8DEA91E00C9478040895CF93DF9366
:1002C0000E943B016091C3017091C4014AE050E07B
:1002D0008BEC92E00E94550E0E9428016AE570E0C6
:1002E0008EEA91E00E944C0368EE73E080E090E0BB
:1002F0000E94490A8BE892E00E943409CCEBD2E0DC
:1003000066E171E0888199810E94A50D6EE171E03E
:10031000888199810E94A50D65E070E080E090E001
:100320000E94490A6AE070E080E090E00E94490A79
:1003300061E08BE892E00E94770964EB70E08EEA5E
:1003400091E00E944C0360ED77E080E090E0DF9167
:10035000CF910C94490A28EC30E04CE06DE081EB41
:1003600091E00E948B088EEA91E00E9479026BE096
:1003700070E08DEA91E00C94B1031F920F920FB6DA
:100380000F9211242F933F934F935F936F937F931B
:100390008F939F93AF93BF93EF93FF938091C60189
:1003A00087FF05C010928500109284001AC020912A
:1003B000C601332727FD30958091C50190E02817AD
:1003C00039077CF48091C601992787FD9095FC013F
:1003D000EE0FFF1FE80FF91FE953FE4F808186FDE6
:1003E00015C08091C6018F5F8093C6012091C60120
:1003F000332727FD30958091C50190E028173907F4
:10040000BCF48091C6018C305CF112C08091C601B1
:10041000992787FD9095FC01EE0FFF1FE80FF91F4C
:10042000E953FE4F808160E08F730E940E0BD9CF9D
:100430008091840090918500049680349C4918F442
:1004400080E49CE905C08091840090918500049629
:1004500090938900809388008FEF8093C60138C005
:1004600020918400309185008091C601992787FDF5
:100470009095FC01EE0FFF1FE80FF91FE953FE4FA7
:1004800081819281820F931F9093890080938800CD
:100490008091C601992787FD9095FC01EE0FFF1F03
:1004A000E80FF91FE953FE4F808186FF11C080914C
:1004B000C601992787FD9095FC01EE0FFF1FE80FFD
:1004C000F91FE953FE4F808161E08F730E940E0B8C
:1004D000FF91EF91BF91AF919F918F917F916F911C
:1004E0005F914F913F912F910F900FBE0F901F90F2
:1004F00018952091C5012C30A0F431E0320F3093D3
:10050000C501FC012083822F90E0FC01EE0FFF1F4C
:10051000E80FF91FE953FE4F88EB9BE0928381833C
:1005200008952FEFFC0120830895DF92EF92FF9250
:100530000F931F93CF93DF93EC01D62E7A0189019D
:1005400088818C3008F066C061E08D2D0E94D50A4C
:100550008881A82FB0E0FD01EE0FFF1FEA0FFB1FFF
:10056000E953FE4F2D2D2F739081907C922B908319
:1005700060E272E06E197F0977FF02C06D5F7F4F06
:100580007595679575956795698340E659E0401BB9
:10059000510B57FF02C04D5F5F4F559547955595DD
:1005A00047954A836CE00E94C8109CE0899FB00187
:1005B000112420E030E0A901460F571FFA01EE0F89
:1005C000FF1FE40FF51FE953FE4F908196FD16C003
:1005D0002F5F3F4F2C30310571F781110FC0109202
:1005E000800082E080938100109285001092840048
:1005F000B19A80916F00826080936F00888190E053
:10060000FC01EE0FFF1FE80FF91FE953FE4F808139
:10061000806480838881DF91CF911F910F91FF903B
:10062000EF90DF90089520E639E040E252E00C942C
:100630009502FC0180818C3070F5918128E830E0D2
:10064000291B310997FD3395220F331F220F331FCA
:10065000621773077CF0928128E532E0291B31098B
:1006600097FD3395220F331F220F331F6217730735
:100670000CF49B0122503109220F331F4FB7F8941D
:1006800090E0FC01EE0FFF1FE80FF91FE953FE4F4A
:10069000328321834FBF08954F925F926F927F9272
:1006A000AF92BF92CF92DF92EF92FF920F931F9380
:1006B000CF93DF93EC01603282E078070CF040C00A
:1006C00077FD06C0653B71052CF064EB70E002C05D
:1006D00060E070E0898128E830E0281B310987FD5F
:1006E0003395220F331F220F331F5901CC24B7FC3F
:1006F000C094DC2C882777FD8095982F2A8148E5C7
:1007000052E0421B510927FD5395440F551F440FDA
:10071000551F2A01662457FC6094762C7F926F92B5
:100720005F924F9214EBE12EF12C00E010E020E0FC
:1007300030E0A9010E94810E0F900F900F900F9052
:10074000CE01DF91CF911F910F91FF90EF90DF903D
:10075000CF90BF90AF907F906F905F904F900C9430
:1007600019036093EB011092ED0108951092B0000F
:10077000E1EBF0E080818B7F8083808182608083E9
:1007800080818E7F8083E0E7F0E0808181608083DC
:1007900081EA8093B200789482E08093EC01109219
:1007A00088028091EB0160E00C94D50A1F920F92B1
:1007B0000FB60F9211242F933F934F935F936F9334
:1007C0007F938F939F93AF93BF93EF93FF9381EAB0
:1007D0008093B2008091EB010E94440B2091EE01C6
:1007E0003091EF012F5F3F4F3093EF012093EE01E7
:1007F000909188029C3418F095E09093EC019091D0
:10080000EC019330B9F018F4923039F057C09430BD
:1008100059F1953009F44CC051C081114FC020915D
:10082000EE013091EF012436310508F443C01092F7
:1008300088021CC0813009F041C0E091880291E03B
:100840009E0F90938802F0E02091EE013091EF012D
:10085000EE0FFF1FE551FE4F368325831092EF0107
:100860001092EE0194E021C0811117C0E09188023E
:1008700091E09E0F90938802F0E02091EE0130917C
:10088000EF01EE0FFF1FE551FE4F368325831092D7
:10089000EF011092EE0193E008C02091EE0130913B
:1008A000EF012536310550F095E09093EC0106C03C
:1008B000811104C01092EF011092EE019091ED01B0
:1008C000992329F0811102C02D9A01C02D98FF9122
:1008D000EF91BF91AF919F918F917F916F915F91B8
:1008E0004F913F912F910F900FBE0F901F90189531
:1008F00082E08093EC011092880208950F931F9379
:10090000CF93DF93EB01E885F98582819381883865
:10091000910508F46CC082819381853E910508F0B1
:1009200066C080918802843081F4848195818097AB
:1009300060F084819581C79740F4868197810997FB
:1009400020F086819781429728F180918802843433
:1009500008F44DC0848195818234910508F447C024
:10096000848195818037910508F041C08F010A5F2D
:100970001F4F23E030E080E090E0DC01F80140818F
:1009800051814930510598F14081518142315105E1
:1009900098F02DC01F821E828FEF9FEFDC018A83AB
:1009A0009B83AC83BD8381E090E09983888361E081
:1009B00070E080E090E036C0A8014E5F5F4FF80124
:1009C000628173816631710530F0F8016281738153
:1009D0006732710580F0FA016081718166307105BE
:1009E00030F0FA01408151814D305105B0F060E0A6
:1009F00070E0CB0117C0880F991FAA1FBB1F816031
:100A00002E5F3F4F0C5F1F4F2334310509F0B6CFE7
:100A100020E230E03F832E83C2CF880F991FAA1FA8
:100A2000BB1FEECFDF91CF911F910F9108950F93D0
:100A30001F93CF93DF938B01809188028A3108F452
:100A400064C0DB011896ED91FC9119978281938126
:100A5000859708F45AC0828193818034910508F00B
:100A600054C0369622E030E080E090E0DC01409116
:100A7000880250E0B9016F5F7F4F641775073CF43F
:100A8000EF012297688179816730710570F42150F8
:100A9000310935952795F801378326832C303105A8
:100AA00054F4F8011782168230C0488159814E30C3
:100AB000510570F0ECCF82839383A483B58382E0E9
:100AC00090E09183808361E070E080E090E026C058
:100AD000408151814331510570F040815181423252
:100AE000510548F4880F991FAA1FBB1F81602E5F14
:100AF0003F4F3496BCCF408151814A30510528F098
:100B0000408151814331510520F060E070E0CB011C
:100B100005C0880F991FAA1FBB1FE9CFDF91CF9196
:100B20001F910F9108954F925F926F927F928F92D3
:100B30009F92AF92BF92CF92DF92EF92FF920F936C
:100B40001F93CF93DF936A015901DA01CD91DC91B4
:100B5000FB0182859385C817D9070CF0D2C0CE015E
:100B6000880F991F0084F185E02DE80FF91FE080C0
:100B7000F180C170DD27F1E0CF27209719F484E6DA
:100B800090E002C08CE99FEF4801880E991EB401E5
:100B9000882777FD8095982F0E94C90F2B013C0173
:100BA00020E030E040E45FE30E94551020E030E0B8
:100BB00048E452E40E942E0F0E94960FE616F706B4
:100BC000D4F020E030E040EA5FE3C301B2010E94CC
:100BD000551020E030E048E452E40E942E0F20E05F
:100BE00030E040E85FE30E94CA0E0E94960F6E1547
:100BF0007F050CF06DC0800E911EB401882777FD33
:100C00008095982F0E94C90F2B013C0120E030E015
:100C100040E45FE30E94551020E030E048E452E4F5
:100C20000E942E0F0E94960FE616F706CCF020E0E9
:100C300030E040EA5FE3C301B2010E94551020E0BA
:100C400030E048E452E40E942E0F20E030E040E81B
:100C50005FE30E94CA0E0E94960F6E157F05DCF5B9
:100C6000B401600F711F882777FD8095982F0E942F
:100C7000C90F2B013C0120E030E040E45FE30E941B
:100C8000551020E030E048E452E40E942E0F0E940C
:100C9000960FE616F706C4F120E030E040EA5FE385
:100CA000C301B2010E94551020E030E048E452E454
:100CB0000E942E0F20E030E040E85FE30E94CA0E61
:100CC0000E94960F6E157F05FCF023E030E005C012
:100CD00021E030E002C022E030E0D5018D919C910E
:100CE000119701968217930744F0F5011182108243
:100CF000D6018D919C91119701968D939C93CE0175
:100D000005C081E090E002C08FEF9FEFDF91CF91AF
:100D10001F910F91FF90EF90DF90CF90BF90AF9019
:100D20009F908F907F906F905F904F9008954F921B
:100D30005F926F927F928F929F92AF92BF92CF926B
:100D4000DF92EF92FF920F931F93CF93DF9300D028
:100D500000D0CDB7DEB76C017B01809188028D3069
:100D600020F460E070E0CB017AC081E090E09C83E9
:100D70008B831A82198209E713E09E012F5F3F4F90
:100D8000AE014D5F5F4FC6010E949305892B49F765
:100D90009E012F5F3F4FAE014D5F5F4FB701C60110
:100DA0000E9493050197E9F69E012F5F3F4FAE0128
:100DB0004D5F5F4FB701C6010E949305892B89F6ED
:100DC000A12CB12C412C512C32018091880290E051
:100DD0002B813C81281739079CF509E713E09E0118
:100DE0002F5F3F4FAE014D5F5F4FB701C6010E94BD
:100DF00093054C019E012F5F3F4FAE014D5F5F4F4A
:100E0000B701C6010E94930521E08216910451F4B6
:100E1000892B09F0A6CF440C551C661C771C6894DE
:100E200040F80AC0892809F09CCF019709F099CFB2
:100E3000440C551C661C771C8FEFA81AB80AC5CF46
:100E4000F701B782A682428253826482758283E070
:100E500090E09183808361E070E080E090E00F900B
:100E60000F900F900F90DF91CF911F910F91FF90F6
:100E7000EF90DF90CF90BF90AF909F908F907F903A
:100E80006F905F904F9008952F923F924F925F9294
:100E90006F927F928F929F92AF92BF92CF92DF928A
:100EA000EF92FF920F931F93CF93DF9300D000D068
:100EB000CDB7DEB76C017B01DB011A968D919C9159
:100EC0001B971816190624F060E070E0CB01BDC036
:100ED00081E090E09C838B83DB011896ED91FC917F
:100EE000199782819381899778F3828193818734DE
:100EF000910550F782E090E09C838B8384819581FB
:100F00000B9710F3848195814597F0F683E090E08C
:100F10009C838B831A8219820CEB11E09E012F5F58
:100F20003F4FAE014D5F5F4FB701C6010E94930571
:100F3000892B51F60CEB11E09E012F5F3F4FAE0164
:100F40004D5F5F4FB701C6010E949305019709F0FD
:100F5000BBCFA12CB12C212C312C21012B813C8128
:100F6000F70182859385281739070CF060C00CEBD8
:100F700011E09E012F5F3F4FAE014D5F5F4FB70104
:100F8000C6010E9493053C01B3E0AB16B10491F099
:100F90000CEB11E09E012F5F3F4FAE014D5F5F4FA5
:100FA000B701C6010E9493054C01E3E0AE16B104FF
:100FB00009F510C00CEB11E09E012F5F3F4FAE0111
:100FC0004D5F5F4FB701C6010E9493056816790611
:100FD000F9F27ACF0CEB11E09E012F5F3F4FAE018B
:100FE0004D5F5F4FB701C6010E94930588169906B1
:100FF00009F06ACF6114710459F48A94892809F0C0
:1010000063CF220C331C441C551C689420F80BC081
:101010006A94672809F058CF892809F055CF220C27
:10102000331C441C551CAFEFAA1ABA0A97CFB782DB
:10103000A682228233824482558284E090E09183AA
:10104000808361E070E080E090E00F900F900F905F
:101050000F90DF91CF911F910F91FF90EF90DF9054
:10106000CF90BF90AF909F908F907F906F905F9048
:101070004F903F902F9008950F931F93CF93DF933E
:101080008C01EB0180EF91E099878887809188023D
:1010900090E09B878A878091EC018530A9F5C80193
:1010A0000E947E04672B682B692B31F5BE01C801B5
:1010B0000E941705672B682B692BF1F4BE01C8014C
:1010C0000E949706672B682B692BB1F4BE01C801FB
:1010D0000E944407672B682B692B71F48A859B85D6
:1010E00006976CF08FEF9FEF998388831F821E8293
:1010F0001A821B821C821D8281E090E007C082E080
:101100008093EC011092880280E090E0DF91CF9113
:101110001F910F910895CF93DF93DC0170E0FB01E5
:10112000E458FF4FE4911496EC931497842F90E0C9
:10113000FC01E458FF4FE4911596EC931597605726
:101140007F4FFB01C491D0E0CC0FDD1FC255DF4FB4
:10115000FE014591549117965C934E931697FC01AE
:10116000E057FF4F849190E0880F991F8C559F4F57
:10117000FC01459154911B965C934E931A97FB0189
:101180006491E62FF0E0EE0FFF1FE854FF4F8591CA
:10119000949119969C938E931897C901253FF1E07D
:1011A0003F0714F084EF91E049E3489F9001499F85
:1011B000300D1124245E3F4F1D963C932E931C97B7
:1011C000DF91CF9108951F920F920FB60F921124C5
:1011D0002F933F934F935F936F937F938F939F933F
:1011E000AF93BF93EF93FF93E0918902F0918A024E
:1011F000309709F00995FF91EF91BF91AF919F91C1
:101200008F917F916F915F914F913F912F910F90AF
:101210000FBE0F901F9018950F931F93CF93DF93DE
:10122000EC01662359F00E941A0A69837A838B8342
:101230009C83DF91CF911F910F9108950E941A0A0C
:1012400009811A812B813C81601B710B820B930BEE
:10125000643671058105910530F763E070E080E048
:1012600090E00E94490AEACF60E00C940C09FC016E
:1012700013AA14AA15AA16AA118212821382148222
:10128000411551056105710521F0CB01BA010C949E
:10129000490A0895FB01BA01A901DC01D296FC9329
:1012A000EE93D19726E0CF010C94500C1F93CF936F
:1012B000DF93EC01162F67E271E089A99AA90E94D9
:1012C000A50D4AE050E0612F89A99AA90E947A0EE3
:1012D0006EE271E089A99AA90E94A50D62E370E00F
:1012E00080E090E0DF91CF911F910C94490A1F9309
:1012F000CF93DF93EC01162F8D81882389F189A983
:101300009AA9DC01ED91FC910480F581E02D09950D
:10131000892BA9F307C02637310519F12835310586
:1013200009F41D8289A99AA9DC01ED91FC91048040
:10133000F581E02D09951816190694F489A99AA942
:10134000DC01ED91FC910680F781E02D09959C016F
:10135000332723363105F9F6612FCE010E94560955
:1013600083E6DF91CF911F9108950F931F93CF9341
:10137000DF931F92CDB7DEB78C01662349F081E081
:10138000F801858360E0C80149830E94770949819B
:10139000F80145830F90DF91CF911F910F91089530
:1013A0001F920F920FB60F9211242F933F938F939A
:1013B0009F93AF93BF938091C3029091C402A09179
:1013C000C502B091C6023091C20223E0230F2D372F
:1013D00020F40196A11DB11D05C026E8230F029639
:1013E000A11DB11D2093C2028093C3029093C40239
:1013F000A093C502B093C6028091C7029091C80223
:10140000A091C902B091CA020196A11DB11D80939D
:10141000C7029093C802A093C902B093CA02BF91B9
:10142000AF919F918F913F912F910F900FBE0F9091
:101430001F9018952FB7F8946091C3027091C40261
:101440008091C5029091C6022FBF08953FB7F894CE
:101450008091C7029091C802A091C902B091CA02BE
:1014600026B5A89B05C02F3F19F00196A11DB11DFF
:101470003FBF6627782F892F9A2F620F711D811D1C
:10148000911D42E0660F771F881F991F4A95D1F77B
:101490000895CF92DF92EF92FF92CF93DF936B018B
:1014A0007C010E94260AEB01C114D104E104F1047D
:1014B00089F00E94C80E0E94260A6C1B7D0B683EB4
:1014C000734090F381E0C81AD108E108F108C851CF
:1014D000DC4FEACFDF91CF91FF90EF90DF90CF907C
:1014E0000895789484B5826084BD84B5816084BD9C
:1014F00085B5826085BD85B5816085BDEEE6F0E08D
:10150000808181608083E1E8F0E0108280818260E8
:101510008083808181608083E0E8F0E08081816069
:101520008083E1EBF0E0808184608083E0EBF0E099
:10153000808181608083EAE7F0E08081846080833D
:1015400080818260808380818160808380818068E7
:1015500080831092C1000895833081F028F4813097
:1015600099F08230A1F008958730A9F08830B9F061
:101570008430D1F4809180008F7D03C08091800001
:101580008F7780938000089584B58F7702C084B5EB
:101590008F7D84BD08958091B0008F7703C08091C6
:1015A000B0008F7D8093B0000895CF93DF9390E0DB
:1015B000FC01E458FF4F2491FC01E057FF4F849158
:1015C000882349F190E0880F991FFC01E854FF4FF0
:1015D000A591B49182559F4FFC01C591D4919FB7BD
:1015E000611108C0F8948C91209582238C93888196
:1015F00082230AC0623051F4F8948C91322F3095D6
:1016000083238C938881822B888304C0F8948C91E7
:10161000822B8C939FBFDF91CF9108950F931F93DF
:10162000CF93DF931F92CDB7DEB7282F30E0F901BB
:10163000E859FF4F8491F901E458FF4F1491F901E3
:10164000E057FF4F04910023C9F0882321F06983FC
:101650000E94AC0A6981E02FF0E0EE0FFF1FE25517
:10166000FF4FA591B4919FB7F8948C91611103C07D
:101670001095812301C0812B8C939FBF0F90DF9128
:10168000CF911F910F910895CF93DF93282F30E0D2
:10169000F901E859FF4F8491F901E458FF4FD491C3
:1016A000F901E057FF4FC491CC2391F081110E94C2
:1016B000AC0AEC2FF0E0EE0FFF1FEC55FF4FA591A9
:1016C000B4912C912D2381E090E021F480E002C0C0
:1016D00080E090E0DF91CF910895FC01818D228D13
:1016E00090E0805C9F4F821B91098F73992708952A
:1016F000FC01918D828D981731F0828DE80FF11DDC
:10170000858D90E008958FEF9FEF0895FC01918DF6
:10171000828D981761F0828DDF01A80FB11D5D9653
:101720008C91928D9F5F9F73928F90E008958FEFC1
:101730009FEF08958AE09DE0892B49F080E090E0DA
:10174000892B29F00E940A0D81110C940000089544
:10175000FC01848DDF01A80FB11DA35ABF4F2C914E
:10176000848D90E001968F739927848FA689B7891D
:101770002C93A089B1898C9180648C93938D848DF6
:10178000981306C00288F389E02D80818F7D8083C5
:101790000895CF93DF93EC01888D8823C9F0EA89FF
:1017A000FB89808185FD05C0A889B9898C9186FD5A
:1017B0000FC00FB607FCF5CF808185FFF2CFA88957
:1017C000B9898C9185FFEDCFCE010E94A80BE7CFA0
:1017D000DF91CF910895CF92DF92FF920F931F93E5
:1017E000CF93DF931F92CDB7DEB76C0181E0D601B6
:1017F00058968C9358975B969C915B975C968C91CE
:101800005C97981307C05096ED91FC915197808199
:1018100085FD2EC0F601038D10E00F5F1F4F0F7383
:101820001127F02EF601848DF81211C00FB607FCB7
:10183000F9CFD6015096ED91FC915197808185FFAB
:10184000F1CFC60169830E94A80B6981EBCF838D1C
:10185000E80FF11DE35AFF4F6083D6015B960C93AE
:101860005B975296ED91FC915397808180620CC0FA
:10187000D6015696ED91FC91579760835096ED9165
:10188000FC91519780818064808381E090E00F908B
:10189000DF91CF911F910F91FF90DF90CF9008952E
:1018A000BF92CF92DF92EF92FF92CF93DF93EC0142
:1018B0006A017B01B22EE889F98982E080834115B3
:1018C00081EE580761057105A1F060E079E08DE3D4
:1018D00090E0A70196010E94D410215031094109DE
:1018E00051095695479537952795211580E1380779
:1018F00098F0E889F989108260E874E88EE190E058
:10190000A70196010E94D4102150310941095109C3
:101910005695479537952795EC85FD853083EE855F
:10192000FF852083188EEC89FD89B082EA89FB89C6
:10193000808180618083EA89FB89808188608083DF
:10194000EA89FB89808180688083EA89FB898081BC
:101950008F7D8083DF91CF91FF90EF90DF90CF90CC
:10196000BF9008951F920F920FB60F9211242F93DC
:101970008F939F93EF93FF93E091DB02F091DC0252
:101980008081E091E102F091E20282FD12C090813B
:101990008091E4028F5F8F732091E502821751F0EE
:1019A000E091E402F0E0E553FD4F958F8093E4026F
:1019B00001C08081FF91EF919F918F912F910F90A6
:1019C0000FBE0F901F9018951F920F920FB60F9297
:1019D00011242F933F934F935F936F937F938F9334
:1019E0009F93AF93BF93EF93FF938BEC92E00E9492
:1019F000A80BFF91EF91BF91AF919F918F917F9134
:101A00006F915F914F913F912F910F900FBE0F906B
:101A10001F9018958BEC92E00E946D0B21E0892BB2
:101A200009F420E0822F08951092CE021092CD0288
:101A300088EE93E0A0E0B0E08093CF029093D002D4
:101A4000A093D102B093D20283E891E09093CC02AC
:101A50008093CB0285EC90E09093D8028093D702DC
:101A600084EC90E09093DA028093D90280EC90E0CD
:101A70009093DC028093DB0281EC90E09093DE0295
:101A80008093DD0282EC90E09093E0028093DF028D
:101A900086EC90E09093E2028093E1021092E402DF
:101AA0001092E5021092E6021092E702089508955E
:101AB0000E94710A0E94570D0E948D00CAE9DBE066
:101AC0000E945E012097E1F30E949A0BF9CFCF921A
:101AD000DF92EF92FF920F931F93CF93DF936C01EE
:101AE0007A01EB01E60EF71E00E010E0CE15DF05EF
:101AF00061F06991D601ED91FC910190F081E02DAA
:101B0000C6010995080F191FF1CFC801DF91CF91C8
:101B10001F910F91FF90EF90DF90CF900895611586
:101B2000710581F0DB010D900020E9F7AD01415016
:101B30005109461B570BDC01ED91FC910280F381AA
:101B4000E02D099480E090E008950C948F0DDC0165
:101B5000ED91FC910190F081E02D099464E371E036
:101B60000C948F0D8F929F92AF92BF92CF92DF9283
:101B7000EF92FF920F931F93CF93DF93CDB7DEB712
:101B8000A1970FB6F894DEBF0FBECDBF7C01C42E67
:101B9000E52FCB01D22E19A221E02D1510F02AE05D
:101BA000D22E8E010F5D1F4F8D2C912CA12CB12CAC
:101BB0006C2D7E2FA50194010E94D4108C2DD29EF5
:101BC00080191124015011098A3014F4805D01C07C
:101BD000895CF8018083211531054105510521F00B
:101BE000C22EE32FCA01E4CFB801C7010E948F0DB6
:101BF000A1960FB6F894DEBF0FBECDBFDF91CF9197
:101C00001F910F91FF90EF90DF90CF90BF90AF901A
:101C10009F908F900895CF92DF92EF92FF920F9353
:101C20001F93CF93DF93EC016A017B0121153105EE
:101C300079F4E881F9810190F081E02D642FDF9142
:101C4000CF911F910F91FF90EF90DF90CF9009946B
:101C50002A303105E9F477FF1AC06DE20E94A70D22
:101C60008C0144275527BA014C195D096E097F097B
:101C70002AE0CE010E94B20D800F911FDF91CF911B
:101C80001F910F91FF90EF90DF90CF9008952AE081
:101C9000B701A601CE01DF91CF911F910F91FF9067
:101CA000EF90DF90CF900C94B20D0F931F93CF93D2
:101CB000DF93EC019A01AB01662757FD6095762F03
:101CC0000E940B0E8C01CE010E94AE0D800F911F61
:101CD000DF91CF911F910F9108952115310541F4A6
:101CE000DC01ED91FC910190F081E02D642F0994CD
:101CF0000C94B20D9A01462F50E060E070E00C9415
:101D00006D0E4F925F926F927F92AF92BF92CF9281
:101D1000DF92EF92FF920F931F93CF93DF93CDB794
:101D2000DEB729013A01621B730B840B950B2989DD
:101D30003A894B895C892A193B094C095D09298B31
:101D40003A8B4B8B5C8B9B01AC0169897A898B89BF
:101D50009C890E94B810E418F50806091709A80123
:101D600097010E94F6102A0D3B1D4C1D5D1DCA01F6
:101D7000B901DF91CF911F910F91FF90EF90DF900C
:101D8000CF90BF90AF907F906F905F904F900895ED
:101D900008955058BB27AA270ED04DC13ED130F030
:101DA00043D120F031F49F3F11F41EF433C10EF4FF
:101DB000E095E7FB29C1E92F4FD180F3BA176207FD
:101DC00073078407950718F071F49EF567C10EF448
:101DD000E0950B2EBA2FA02D0B01B90190010C013B
:101DE000CA01A0011124FF27591B99F0593F50F453
:101DF000503E68F11A16F040A22F232F342F4427AB
:101E0000585FF3CF469537952795A795F0405395A2
:101E1000C9F77EF41F16BA0B620B730B840BBAF072
:101E20009150A1F0FF0FBB1F661F771F881FC2F7DD
:101E30000EC0BA0F621F731F841F48F487957795F1
:101E40006795B795F7959E3F08F0B3CF9395880FA8
:101E500008F09927EE0F9795879508950CD0EBC061
:101E6000E3D040F0DAD030F021F45F3F19F0CCC07D
:101E7000511115C1CFC0F0D098F39923C9F3552360
:101E8000B1F3951B550BBB27AA276217730784076D
:101E900038F09F5F5F4F220F331F441FAA1FA9F323
:101EA00033D00E2E3AF0E0E830D091505040E69515
:101EB000001CCAF729D0FE2F27D0660F771F881F76
:101EC000BB1F261737074807AB07B0E809F0BB0B65
:101ED000802DBF01FF2793585F4F2AF09E3F510589
:101EE00068F092C0DCC05F3FECF3983EDCF386956F
:101EF00077956795B795F7959F5FC9F7880F911DFF
:101F00009695879597F90895E1E0660F771F881FEA
:101F1000BB1F621773078407BA0720F0621B730B9D
:101F2000840BBA0BEE1F88F7E095089504D06894EF
:101F3000B111B5C0089598D088F09F5790F0B92F8F
:101F40009927B751A0F0D1F0660F771F881F991F0E
:101F50001AF0BA95C9F712C0B13081F09FD0B1E044
:101F600008959CC0672F782F8827B85F39F0B93F54
:101F7000CCF3869577956795B395D9F73EF4909510
:101F80008095709561957F4F8F4F9F4F0895E8948E
:101F900009C097FB3EF490958095709561957F4FB1
:101FA0008F4F9F4F9923A9F0F92F96E9BB2793955F
:101FB000F695879577956795B795F111F8CFFAF46F
:101FC000BB0F11F460FF1BC06F5F7F4F8F4F9F4FA0
:101FD00016C0882311F096E911C0772321F09EE8FE
:101FE000872F762F05C0662371F096E8862F70E064
:101FF00060E02AF09A95660F771F881FDAF7880F3E
:102000009695879597F9089597F99F6780E870E00E
:1020100060E008959FEF80EC089500240A9416165E
:10202000170618060906089500240A9412161306C6
:10203000140605060895092E0394000C11F4882354
:1020400052F0BB0F40F4BF2B11F460FF04C06F5F70
:102050007F4F8F4F9F4F089557FD9058440F551F46
:1020600059F05F3F71F04795880F97FB991F61F01A
:102070009F3F79F087950895121613061406551F91
:10208000F2CF4695F1DF08C0161617061806991FFD
:10209000F1CF86957105610508940895E894BB27F2
:1020A00066277727CB0197F908950BD0C4CFB5DF0A
:1020B00028F0BADF18F0952309F0A6CFABCF112492
:1020C000EECFCADFA0F3959FD1F3950F50E0551FD7
:1020D000629FF001729FBB27F00DB11D639FAA277D
:1020E000F00DB11DAA1F649F6627B00DA11D661FCC
:1020F000829F2227B00DA11D621F739FB00DA11DED
:10210000621F839FA00D611D221F749F3327A00DA6
:10211000611D231F849F600D211D822F762F6A2F42
:1021200011249F5750408AF0E1F088234AF0EE0FC7
:10213000FF1FBB1F661F771F881F91505040A9F7D4
:102140009E3F510570F060CFAACF5F3FECF3983E01
:10215000DCF3869577956795B795F795E7959F5F3B
:10216000C1F7FE2B880F911D9695879597F90895D5
:10217000DB018F939F930E941511BF91AF91A29F96
:10218000800D911DA39F900DB29F900D1124089575
:10219000991B79E004C0991F961708F0961B881FB9
:1021A0007A95C9F780950895A1E21A2EAA1BBB1B48
:1021B000FD010DC0AA1FBB1FEE1FFF1FA217B30713
:1021C000E407F50720F0A21BB30BE40BF50B661F29
:1021D000771F881F991F1A9469F7609570958095ED
:1021E00090959B01AC01BD01CF010895052E97FB91
:1021F0001EF400940E940D1157FD07D00E94D410C8
:1022000007FC03D04EF40C940D1150954095309579
:1022100021953F4F4F4F5F4F089590958095709552
:1022200061957F4F8F4F9F4F08950E942611A59F64
:10223000900DB49F900DA49F800D911D11240895C1
:10224000EE0FFF1F0590F491E02D0994A29FB001BD
:10225000B39FC001A39F700D811D1124911DB29FDA
:0E226000700D811D1124911D0895F894FFCF7B
:10226E0001000000564D4450565F317C315F564D93
:10227E004450560D0A00564D4450455F31005F568E
:10228E004D4450450D0A00564D4450435F005F5675
:10229E004D4450430D0A004572726F723A204174DC
:1022AE0074656D707420746F207365742061207274
:1022BE006561642D6F6E6C79207661726961626CF6
:1022CE0065206F7220646174612074797065206E70
:1022DE006F7420737570706F727465640D0A0000F0
:1022EE00000000EB0B670D6D0B860B780BC90B6EA8
:0E22FE00616E00696E66006F7666002E00004D
:00000001FF
