:100000000C9463000C948B000C948B000C948B006C
:100010000C948B000C948B000C948B000C944C096A
:100020000C948B000C948F030C948B000C94760131
:100030000C948B000C948B000C948B000C948B0014
:100040000C9475090C948B000C94560C0C94880C31
:100050000C948B000C948B000C948B000C948B00F4
:100060000C948B000C948B0000000008000201002F
:100070000003040700000000000000000102040863
:100080001020408001020408102001020408102002
:10009000040404040404040402020202020203032E
:1000A00003030303000000002300260029000000D2
:1000B0000000250028002B0000000000240027007D
:1000C0002A006401B80C11241FBECFEFD8E0DEBFB8
:1000D000CDBF11E0A0E0B1E0E8EFF1E202C0059091
:1000E0000D92A632B107D9F722E0A6E2B1E001C035
:1000F0001D92AB3BB207E1F710E0C6ECD0E004C0C4
:100100002297FE010E94E710C23CD107C9F70E9466
:10011000FC0C0C94FA100C94000061E082E00E9448
:10012000790A61E083E00E94790A61E084E00E943C
:10013000790A61E085E00E94790A61E089E00E9425
:10014000790A61E086E00E94790A6AE070E088E35B
:1001500091E00E94CC0260E070E088E391E00E94B0
:10016000050326E040E855E260E070E08EE192E0B1
:100170000E94F40B60E08BE00E94790A87E391E033
:100180000E946F0381E090E090934E0180934D01B7
:1001900008951092280180912601909127018737B8
:1001A000984829F410924E0110924D01089581E073
:1001B00090E090934E0180934D01089561E082E0BC
:1001C0000E94B20A60E083E00E94B20A61E084E02B
:1001D0000E94B20A60E085E00C94B20A60E083E01D
:1001E0000E94B20A60E082E00E94B20A60E085E00C
:1001F0000E94B20A60E084E00C94B20A8BE391E0C2
:100200000E94390990932A01809329010A973CF4AE
:1002100081E090E090934E0180934D0104C01092D4
:100220004E0110924D011092280168EC70E080E0C0
:1002300090E00C94E2098091280181110EC0809118
:100240004D0190914E01892B19F40E94DE0002C0ED
:100250000E94EE0081E08093280108956BE271E036
:1002600087E391E00E94F507892B81F080912D01B1
:1002700090912E0190932701809326010E94C9003E
:100280000E941B0187E391E00C94310408950E94C1
:100290002E0160914D0170914E014AE050E08EE1D7
:1002A00092E00E94F70D0E941B018AE590E00E94F7
:1002B000FE008BE391E00E9439094AE050E0BC0166
:1002C0008EE192E00C941C0E28EC30E04CE06DE0E6
:1002D0008BE391E00E94440888E391E00E9432029F
:1002E0006BE070E087E391E00C946A031F920F9239
:1002F0000FB60F9211242F933F934F935F936F93F9
:100300007F938F939F93AF93BF93EF93FF938091CE
:10031000500187FF05C010928500109284001AC01A
:1003200020915001332727FD309580914F0190E0B7
:10033000281739077CF480915001992787FD909503
:10034000FC01EE0FFF1FE80FF91FEF5AFE4F8081EF
:1003500086FD15C0809150018F5F809350012091E0
:100360005001332727FD309580914F0190E02817E9
:100370003907BCF4809150018C305CF112C080913F
:100380005001992787FD9095FC01EE0FFF1FE80FA4
:10039000F91FEF5AFE4F808160E08F730E94B20A0E
:1003A000D9CF8091840090918500049680349C4937
:1003B00018F480E49CE905C0809184009091850048
:1003C000049690938900809388008FEF809350016A
:1003D00038C0209184003091850080915001992788
:1003E00087FD9095FC01EE0FFF1FE80FF91FEF5AF4
:1003F000FE4F81819281820F931F90938900809399
:10040000880080915001992787FD9095FC01EE0F9F
:10041000FF1FE80FF91FEF5AFE4F808186FF11C0C2
:1004200080915001992787FD9095FC01EE0FFF1FE9
:10043000E80FF91FEF5AFE4F808161E08F730E9431
:10044000B20AFF91EF91BF91AF919F918F917F91F0
:100450006F915F914F913F912F910F900FBE0F9031
:100460001F90189520914F012C30A0F431E0320FED
:1004700030934F01FC012083822F90E0FC01EE0FAE
:10048000FF1FE80FF91FEF5AFE4F88EB9BE09283A6
:10049000818308952FEFFC0120830895DF92EF926E
:1004A000FF920F931F93CF93DF93EC01D62E7A0127
:1004B000890188818C3008F066C061E08D2D0E9432
:1004C000790A8881A82FB0E0FD01EE0FFF1FEA0F27
:1004D000FB1FEF5AFE4F2D2D2F739081907C922B96
:1004E000908360E272E06E197F0977FF02C06D5F52
:1004F0007F4F7595679575956795698340E659E0D7
:10050000401B510B57FF02C04D5F5F4F55954795FC
:10051000559547954A836CE00E9479109CE0899F2D
:10052000B001112420E030E0A901460F571FFA0165
:10053000EE0FFF1FE40FF51FEF5AFE4F908196FD5F
:1005400016C02F5F3F4F2C30310571F781110FC05E
:100550001092800082E080938100109285001092BA
:100560008400B19A80916F00826080936F008881CF
:1005700090E0FC01EE0FFF1FE80FF91FEF5AFE4F4E
:100580008081806480838881DF91CF911F910F915A
:10059000FF90EF90DF90089520E639E040E252E0CE
:1005A0000C944E02FC0180818C3070F5918128E81A
:1005B00030E0291B310997FD3395220F331F220F9D
:1005C000331F621773077CF0928128E532E0291B04
:1005D000310997FD3395220F331F220F331F621706
:1005E00073070CF49B0122503109220F331F4FB7C0
:1005F000F89490E0FC01EE0FFF1FE80FF91FEF5A8F
:10060000FE4F328321834FBF08954F925F926F92C6
:100610007F92AF92BF92CF92DF92EF92FF920F93B1
:100620001F93CF93DF93EC01603282E078070CF0E8
:1006300040C077FD06C0653B71052CF064EB70E0AF
:1006400002C060E070E0898128E830E0281B3109B1
:1006500087FD3395220F331F220F331F5901CC24FE
:10066000B7FCC094DC2C882777FD8095982F2A81D1
:1006700048E552E0421B510927FD5395440F551F91
:10068000440F551F2A01662457FC6094762C7F92F4
:100690006F925F924F9214EBE12EF12C00E010E08C
:1006A00020E030E0A9010E94320E0F900F900F90D1
:1006B0000F90CE01DF91CF911F910F91FF90EF909E
:1006C000DF90CF90BF90AF907F906F905F904F90F2
:1006D0000C94D202609375011092770108951092E4
:1006E000B000E1EBF0E080818B7F808380818260CD
:1006F000808380818E7F8083E0E7F0E0808181606D
:10070000808381EA8093B200789482E080937601BE
:10071000109212028091750160E00C94790A1F9288
:100720000F920FB60F9211242F933F934F935F9325
:100730006F937F938F939F93AF93BF93EF93FF93A9
:1007400081EA8093B200809175010E94E80A2091AD
:100750007801309179012F5F3F4F309379012093D9
:100760007801909112029C3418F095E090937601F4
:10077000909176019330B9F018F4923039F057C067
:10078000943059F1953009F44CC051C081114FC0DB
:1007900020917801309179012436310508F443C065
:1007A000109212021CC0813009F041C0E091120287
:1007B00091E09E0F90931202F0E020917801309129
:1007C0007901EE0FFF1FEB58FE4F36832583109201
:1007D00079011092780194E021C0811117C0E09155
:1007E000120291E09E0F90931202F0E020917801A6
:1007F00030917901EE0FFF1FEB58FE4F36832583B2
:10080000109279011092780193E008C0209178014C
:10081000309179012536310550F095E090937601BD
:1008200006C0811104C01092790110927801909154
:100830007701992329F0811102C02D9A01C02D98CA
:10084000FF91EF91BF91AF919F918F917F916F91A8
:100850005F914F913F912F910F900FBE0F901F907E
:10086000189582E0809376011092120208950F93FA
:100870001F93CF93DF93EB01E885F9858281938104
:100880008838910508F46CC082819381853E91057A
:1008900008F066C080911202843081F484819581D1
:1008A000809760F084819581C79740F48681978115
:1008B000099720F086819781429728F18091120252
:1008C000843408F44DC0848195818234910508F404
:1008D00047C0848195818037910508F041C08F0120
:1008E0000A5F1F4F23E030E080E090E0DC01F80178
:1008F000408151814930510598F140815181423107
:10090000510598F02DC01F821E828FEF9FEFDC01F2
:100910008A839B83AC83BD8381E090E09983888345
:1009200061E070E080E090E036C0A8014E5F5F4F6C
:10093000F801628173816631710530F0F8016281DE
:1009400073816732710580F0FA01608171816630D0
:10095000710530F0FA01408151814D305105B0F000
:1009600060E070E0CB0117C0880F991FAA1FBB1F62
:1009700081602E5F3F4F0C5F1F4F2334310509F01C
:10098000B6CF20E230E03F832E83C2CF880F991F7D
:10099000AA1FBB1FEECFDF91CF911F910F9108953A
:1009A0000F931F93CF93DF938B01809112028A31B3
:1009B00008F464C0DB011896ED91FC9119978281CF
:1009C0009381859708F45AC0828193818034910580
:1009D00008F054C0369622E030E080E090E0DC0180
:1009E0004091120250E0B9016F5F7F4F64177507A5
:1009F0003CF4EF012297688179816730710570F4CA
:100A00002150310935952795F801378326832C30FD
:100A1000310554F4F8011782168230C0488159819B
:100A20004E30510570F0ECCF82839383A483B5835D
:100A300082E090E09183808361E070E080E090E06C
:100A400026C0408151814331510570F04081518170
:100A50004232510548F4880F991FAA1FBB1F8160BD
:100A60002E5F3F4F3496BCCF408151814A305105B3
:100A700028F0408151814331510520F060E070E061
:100A8000CB0105C0880F991FAA1FBB1FE9CFDF91BB
:100A9000CF911F910F9108954F925F926F927F9225
:100AA0008F929F92AF92BF92CF92DF92EF92FF927E
:100AB0000F931F93CF93DF936A015901DA01CD9110
:100AC000DC91FB0182859385C817D9070CF0D2C051
:100AD000CE01880F991F0084F185E02DE80FF91FE2
:100AE000E080F180C170DD27F1E0CF27209719F475
:100AF00084E690E002C08CE99FEF4801880E991EC1
:100B0000B401882777FD8095982F0E947A0F2B01DA
:100B10003C0120E030E040E45FE30E94061020E06A
:100B200030E048E452E40E94DF0E0E94470FE616D0
:100B3000F706D4F020E030E040EA5FE3C301B20101
:100B40000E94061020E030E048E452E40E94DF0EEC
:100B500020E030E040E85FE30E947B0E0E94470FF8
:100B60006E157F050CF06DC0800E911EB4018827B4
:100B700077FD8095982F0E947A0F2B013C0120E091
:100B800030E040E45FE30E94061020E030E048E4FB
:100B900052E40E94DF0E0E94470FE616F706CCF0E3
:100BA00020E030E040EA5FE3C301B2010E9406109A
:100BB00020E030E048E452E40E94DF0E20E030E024
:100BC00040E85FE30E947B0E0E94470F6E157F0591
:100BD000DCF5B401600F711F882777FD8095982F91
:100BE0000E947A0F2B013C0120E030E040E45FE3FB
:100BF0000E94061020E030E048E452E40E94DF0E3C
:100C00000E94470FE616F706C4F120E030E040EA04
:100C10005FE3C301B2010E94061020E030E048E427
:100C200052E40E94DF0E20E030E040E85FE30E94E3
:100C30007B0E0E94470F6E157F05FCF023E030E02D
:100C400005C021E030E002C022E030E0D5018D9106
:100C50009C91119701968217930744F0F501118238
:100C60001082D6018D919C91119701968D939C9342
:100C7000CE0105C081E090E002C08FEF9FEFDF91D1
:100C8000CF911F910F91FF90EF90DF90CF90BF9089
:100C9000AF909F908F907F906F905F904F9008954E
:100CA0004F925F926F927F928F929F92AF92BF927C
:100CB000CF92DF92EF92FF920F931F93CF93DF9328
:100CC00000D000D0CDB7DEB76C017B01809112025D
:100CD0008D3020F460E070E0CB017AC081E090E0DC
:100CE0009C838B831A82198209E713E09E012F5F90
:100CF0003F4FAE014D5F5F4FC6010E944C05892BEF
:100D000049F79E012F5F3F4FAE014D5F5F4FB70127
:100D1000C6010E944C050197E9F69E012F5F3F4FE7
:100D2000AE014D5F5F4FB701C6010E944C05892B94
:100D300089F6A12CB12C412C512C32018091120248
:100D400090E02B813C81281739079CF509E713E0D7
:100D50009E012F5F3F4FAE014D5F5F4FB701C60150
:100D60000E944C054C019E012F5F3F4FAE014D5F2D
:100D70005F4FB701C6010E944C0521E08216910425
:100D800051F4892B09F0A6CF440C551C661C771C26
:100D9000689440F80AC0892809F09CCF019709F0AF
:100DA00099CF440C551C661C771C8FEFA81AB80A03
:100DB000C5CFF701B782A6824282538264827582D0
:100DC00083E090E09183808361E070E080E090E0D8
:100DD0000F900F900F900F90DF91CF911F910F9177
:100DE000FF90EF90DF90CF90BF90AF909F908F904B
:100DF0007F906F905F904F9008952F923F924F9207
:100E00005F926F927F928F929F92AF92BF92CF929A
:100E1000DF92EF92FF920F931F93CF93DF9300D057
:100E200000D0CDB7DEB76C017B01DB011A968D9146
:100E30009C911B971816190624F060E070E0CB0116
:100E4000BDC081E090E09C838B83DB011896ED911F
:100E5000FC91199782819381899778F3828193819C
:100E60008734910550F782E090E09C838B838481E6
:100E700095810B9710F3848195814597F0F683E077
:100E800090E09C838B831A8219820CEB11E09E0107
:100E90002F5F3F4FAE014D5F5F4FB701C6010E940C
:100EA0004C05892B51F60CEB11E09E012F5F3F4F53
:100EB000AE014D5F5F4FB701C6010E944C0501971F
:100EC00009F0BBCFA12CB12C212C312C21012B817D
:100ED0003C81F70182859385281739070CF060C0A3
:100EE0000CEB11E09E012F5F3F4FAE014D5F5F4F56
:100EF000B701C6010E944C053C01B3E0AB16B1043A
:100F000091F00CEB11E09E012F5F3F4FAE014D5F62
:100F10005F4FB701C6010E944C054C01E3E0AE16DD
:100F2000B10409F510C00CEB11E09E012F5F3F4F9B
:100F3000AE014D5F5F4FB701C6010E944C056816B8
:100F40007906F9F27ACF0CEB11E09E012F5F3F4F4B
:100F5000AE014D5F5F4FB701C6010E944C05881678
:100F6000990609F06ACF6114710459F48A948928AA
:100F700009F063CF220C331C441C551C689420F8E4
:100F80000BC06A94672809F058CF892809F055CF1B
:100F9000220C331C441C551CAFEFAA1ABA0A97CF77
:100FA000B782A682228233824482558284E090E016
:100FB0009183808361E070E080E090E00F900F907B
:100FC0000F900F90DF91CF911F910F91FF90EF90B5
:100FD000DF90CF90BF90AF909F908F907F906F9059
:100FE0005F904F903F902F9008950F931F93CF9352
:100FF000DF938C01EB018AE791E0998788878091E4
:10100000120290E09B878A87809176018530A9F54E
:10101000C8010E943704672B682B692B31F5BE018C
:10102000C8010E94D004672B682B692BF1F4BE0124
:10103000C8010E945006672B682B692BB1F4BE01D2
:10104000C8010E94FD06672B682B692B71F48A8505
:101050009B8506976CF08FEF9FEF998388831F82A3
:101060001E821A821B821C821D8281E090E007C0D2
:1010700082E0809376011092120280E090E0DF918E
:10108000CF911F910F910895CF93DF93DC0170E012
:10109000FB01E458FF4FE4911496EC931497842FCE
:1010A00090E0FC01E458FF4FE4911596EC931597FE
:1010B00060577F4FFB01C491D0E0CC0FDD1FC255BC
:1010C000DF4FFE014591549117965C934E9316970E
:1010D000FC01E057FF4F849190E0880F991F8C55D9
:1010E0009F4FFC01459154911B965C934E931A9728
:1010F000FB016491E62FF0E0EE0FFF1FE854FF4F75
:101100008591949119969C938E931897C901253FC8
:10111000F1E03F0714F084EF91E049E3489F90012C
:10112000499F300D1124245E3F4F1D963C932E9312
:101130001C97DF91CF9108950F931F93CF93DF9367
:10114000EC01E885F98580819C81892B8083EE8183
:10115000FF8190818C8180958923808384E090E059
:101160000E940A0AEE81FF8180819C81892B808305
:101170008AE090E00E940A0AEE81FF8190818C81D2
:10118000809589238083E885F98590818C8180957D
:10119000892380830E94BF09605B794B8F4F9F4FEB
:1011A0006E877F87888B998BEA85FB8580819D81FF
:1011B000892359F00E94BF090E851F852889398926
:1011C000061717072807390778F7EA85FB85808116
:1011D0009D81892369F40E94BF090E851F85288996
:1011E0003989061717072807390778F780E00DC0F7
:1011F0000E94BF092C853D85620F731F811D911DC3
:101200006E877F87888B998B81E0DF91CF911F91CB
:101210000F9108950F931F93CF93DF93EC010E94DA
:101220009C08882389F0EA85FB8580819D8189233C
:1012300071F00E94BF090E851F852889398906171C
:1012400017072807390778F720E030E00CC00E9424
:10125000BF092C853D85255031094E855F85241BAE
:10126000350B260F371FC901DF91CF911F910F91C9
:1012700008950E940A0931E020E0009709F430E067
:101280004C9669E370E00E948510832F922F861799
:10129000970708F4CB0108951F920F920FB60F9293
:1012A00011242F933F934F935F936F937F938F936B
:1012B0009F93AF93BF93EF93FF93E0911302F0914D
:1012C0001402309709F00995FF91EF91BF91AF910A
:1012D0009F918F917F916F915F914F913F912F914E
:1012E0000F900FBE0F901F9018951F920F920FB680
:1012F0000F9211242F933F938F939F93AF93BF939C
:101300008091160290911702A0911802B0911902D3
:101310003091150223E0230F2D3720F40196A11DF3
:10132000B11D05C026E8230F0296A11DB11D209313
:1013300015028093160290931702A0931802B0939F
:10134000190280911A0290911B02A0911C02B09187
:101350001D020196A11DB11D80931A0290931B02DC
:10136000A0931C02B0931D02BF91AF919F918F91EA
:101370003F912F910F900FBE0F901F9018953FB780
:10138000F89480911A0290911B02A0911C02B091D6
:101390001D0226B5A89B05C02F3F19F00196A11D7F
:1013A000B11D3FBF6627782F892F9A2F620F711DBD
:1013B000811D911D42E0660F771F881F991F4A9576
:1013C000D1F70895CF92DF92EF92FF92CF93DF9300
:1013D0006B017C010E94BF09EB01C114D104E1043F
:1013E000F10489F00E94790E0E94BF096C1B7D0BED
:1013F000683E734090F381E0C81AD108E108F10813
:10140000C851DC4FEACFDF91CF91FF90EF90DF9092
:10141000CF9008958230910538F0880F991F880F7A
:10142000991F05970197F1F70895789484B5826024
:1014300084BD84B5816084BD85B5826085BD85B578
:10144000816085BDEEE6F0E0808181608083E1E827
:10145000F0E010828081826080838081816080835F
:10146000E0E8F0E0808181608083E1EBF0E0808162
:1014700084608083E0EBF0E0808181608083EAE734
:10148000F0E08081846080838081826080838081BD
:10149000816080838081806880831092C10008957C
:1014A000833081F028F4813099F08230A1F00895E2
:1014B0008730A9F08830B9F08430D1F48091800071
:1014C0008F7D03C0809180008F7780938000089586
:1014D00084B58F7702C084B58F7D84BD08958091D7
:1014E000B0008F7703C08091B0008F7D8093B000F3
:1014F0000895CF93DF9390E0FC01E458FF4F2491CF
:10150000FC01E057FF4F8491882349F190E0880F58
:10151000991FFC01E854FF4FA591B49182559F4F4C
:10152000FC01C591D4919FB7611108C0F8948C91CA
:10153000209582238C93888182230AC0623051F4E3
:10154000F8948C91322F309583238C938881822B51
:10155000888304C0F8948C91822B8C939FBFDF9179
:10156000CF9108950F931F93CF93DF931F92CDB721
:10157000DEB7282F30E0F901E859FF4F8491F901D7
:10158000E458FF4F1491F901E057FF4F04910023F5
:10159000C9F0882321F069830E94500A6981E02FF5
:1015A000F0E0EE0FFF1FE255FF4FA591B4919FB7FA
:1015B000F8948C91611103C01095812301C0812B97
:1015C0008C939FBF0F90DF91CF911F910F91089542
:1015D000CF93DF93282F30E0F901E859FF4F849132
:1015E000F901E458FF4FD491F901E057FF4FC4913E
:1015F000CC2391F081110E94500AEC2FF0E0EE0F05
:10160000FF1FEC55FF4FA591B4912C912D2381E044
:1016100090E021F480E002C080E090E0DF91CF9183
:101620000895FC01818D228D90E0805C9F4F821B8C
:1016300091098F7399270895FC01918D828D9817D8
:1016400031F0828DE80FF11D858D90E008958FEFC8
:101650009FEF0895FC01918D828D981761F0828D26
:10166000DF01A80FB11D5D968C91928D9F5F9F73D6
:10167000928F90E008958FEF9FEF08958EEA9CE09F
:10168000892B49F080E090E0892B29F00E94AE0C74
:1016900081110C9400000895FC01848DDF01A80FD6
:1016A000B11DA35ABF4F2C91848D90E001968F738A
:1016B0009927848FA689B7892C93A089B1898C91A9
:1016C00080648C93938D848D981306C00288F3896F
:1016D000E02D80818F7D80830895CF93DF93EC018F
:1016E000888D8823C9F0EA89FB89808185FD05C042
:1016F000A889B9898C9186FD0FC00FB607FCF5CF7C
:10170000808185FFF2CFA889B9898C9185FFEDCFC3
:10171000CE010E944C0BE7CFDF91CF910895CF927D
:10172000DF92FF920F931F93CF93DF931F92CDB75A
:10173000DEB76C0181E0D60158968C9358975B9682
:101740009C915B975C968C915C97981307C0509620
:10175000ED91FC915197808185FD2EC0F601038D9E
:1017600010E00F5F1F4F0F731127F02EF601848DCD
:10177000F81211C00FB607FCF9CFD6015096ED91C3
:10178000FC915197808185FFF1CFC60169830E944A
:101790004C0B6981EBCF838DE80FF11DE35AFF4FAE
:1017A0006083D6015B960C935B975296ED91FC910A
:1017B0005397808180620CC0D6015696ED91FC91C2
:1017C000579760835096ED91FC915197808180648A
:1017D000808381E090E00F90DF91CF911F910F9176
:1017E000FF90DF90CF900895BF92CF92DF92EF925B
:1017F000FF92CF93DF93EC016A017B01B22EE8895F
:10180000F98982E08083411581EE580761057105F1
:10181000A1F060E079E08DE390E0A70196010E94DD
:10182000991021503109410951095695479537952D
:101830002795211580E1380798F0E889F989108209
:1018400060E874E88EE190E0A70196010E9499108B
:1018500021503109410951095695479537952795EA
:10186000EC85FD853083EE85FF852083188EEC891D
:10187000FD89B082EA89FB89808180618083EA8961
:10188000FB89808188608083EA89FB898081806808
:101890008083EA89FB8980818F7D8083DF91CF916E
:1018A000FF90EF90DF90CF90BF9008951F920F921E
:1018B0000FB60F9211242F938F939F93EF93FF9363
:1018C000E0912E02F0912F028081E0913402F0919C
:1018D000350282FD12C09081809137028F5F8F7335
:1018E00020913802821751F0E0913702F0E0E25E79
:1018F000FD4F958F8093370201C08081FF91EF915A
:101900009F918F912F910F900FBE0F901F90189560
:101910001F920F920FB60F9211242F933F934F9364
:101920005F936F937F938F939F93AF93BF93EF9347
:10193000FF938EE192E00E944C0BFF91EF91BF91DB
:10194000AF919F918F917F916F915F914F913F9157
:101950002F910F900FBE0F901F9018958EE192E07F
:101960000E94110B21E0892B09F420E0822F0895B9
:10197000109221021092200288EE93E0A0E0B0E0E5
:101980008093220290932302A0932402B093250215
:1019900088E091E090931F0280931E0285EC90E016
:1019A00090932B0280932A0284EC90E090932D0276
:1019B00080932C0280EC90E090932F0280932E0273
:1019C00081EC90E0909331028093300282EC90E0C1
:1019D000909333028093320286EC90E0909335022C
:1019E000809334021092370210923802109239021A
:1019F00010923A02089508950E94150A0E94FB0C65
:101A00000E948D00CEE3DBE00E9447012097E1F3C6
:101A10000E943E0BF9CFCF92DF92EF92FF920F938D
:101A20001F93CF93DF936C017A01EB01E60EF71E53
:101A300000E010E0CE15DF0561F06991D601ED916F
:101A4000FC910190F081E02DC6010995080F191F46
:101A5000F1CFC801DF91CF911F910F91FF90EF90CF
:101A6000DF90CF9008956115710581F0DB010D9035
:101A70000020E9F7AD0141505109461B570BDC012D
:101A8000ED91FC910280F381E02D099480E090E0DB
:101A90000895DC01ED91FC910190F081E02D099415
:101AA00064E171E00C94330D8F929F92AF92BF92DC
:101AB000CF92DF92EF92FF920F931F93CF93DF931A
:101AC000CDB7DEB7A1970FB6F894DEBF0FBECDBF7E
:101AD0007C01C42EE52FCB01D22E19A221E02D15B9
:101AE00010F02AE0D22E8E010F5D1F4F8D2C912C0D
:101AF000A12CB12C6C2D7E2FA50194010E94991070
:101B00008C2DD29E80191124015011098A3014F4B1
:101B1000805D01C0895CF801808321153105410594
:101B2000510521F0C22EE32FCA01E4CFB801C7014D
:101B30000E94330DA1960FB6F894DEBF0FBECDBF45
:101B4000DF91CF911F910F91FF90EF90DF90CF9099
:101B5000BF90AF909F908F900895CF92DF92EF92B9
:101B6000FF920F931F93CF93DF93EC016A017B01E8
:101B70002115310579F4E881F9810190F081E02D9A
:101B8000642FDF91CF911F910F91FF90EF90DF9025
:101B9000CF9009942A303105E9F477FF1AC06DE23D
:101BA0000E94490D8C0144275527BA014C195D0943
:101BB0006E097F092AE0CE010E94540D800F911F0B
:101BC000DF91CF911F910F91FF90EF90DF90CF9019
:101BD00008952AE0B701A601CE01DF91CF911F91B0
:101BE0000F91FF90EF90DF90CF900C94540D0F93D6
:101BF0001F93CF93DF93EC019A01AB01662757FD4A
:101C00006095762F0E94AD0D8C01CE010E94500D83
:101C1000800F911FDF91CF911F910F910895211592
:101C2000310541F4DC01ED91FC910190F081E02D52
:101C3000642F09940C94540D0F931F93CF93DF934B
:101C4000EC019A01AB0160E070E00E940F0E8C0184
:101C5000CE010E94500D800F911FDF91CF911F91F7
:101C60000F9108954F925F926F927F92AF92BF92C1
:101C7000CF92DF92EF92FF920F931F93CF93DF9358
:101C8000CDB7DEB729013A01621B730B840B950BAC
:101C900029893A894B895C892A193B094C095D09D4
:101CA000298B3A8B4B8B5C8B9B01AC0169897A89C0
:101CB0008B899C890E946910E418F50806091709A8
:101CC000A80197010E94BB102A0D3B1D4C1D5D1DF4
:101CD000CA01B901DF91CF911F910F91FF90EF9051
:101CE000DF90CF90BF90AF907F906F905F904F90BC
:101CF000089508955058BB27AA270ED04DC13ED154
:101D000030F043D120F031F49F3F11F41EF433C181
:101D10000EF4E095E7FB29C1E92F4FD180F3BA1704
:101D2000620773078407950718F071F49EF567C181
:101D30000EF4E0950B2EBA2FA02D0B01B9019001E6
:101D40000C01CA01A0011124FF27591B99F0593F2A
:101D500050F4503E68F11A16F040A22F232F342F72
:101D60004427585FF3CF469537952795A795F040C0
:101D70005395C9F77EF41F16BA0B620B730B840BD5
:101D8000BAF09150A1F0FF0FBB1F661F771F881F8D
:101D9000C2F70EC0BA0F621F731F841F48F48795E5
:101DA00077956795B795F7959E3F08F0B3CF9395D4
:101DB000880F08F09927EE0F9795879508950CD016
:101DC000EBC0E3D040F0DAD030F021F45F3F19F0FF
:101DD000CCC0511115C1CFC0F0D098F39923C9F3ED
:101DE0005523B1F3951B550BBB27AA276217730721
:101DF000840738F09F5F5F4F220F331F441FAA1FD5
:101E0000A9F333D00E2E3AF0E0E830D09150504094
:101E1000E695001CCAF729D0FE2F27D0660F771F42
:101E2000881FBB1F261737074807AB07B0E809F024
:101E3000BB0B802DBF01FF2793585F4F2AF09E3FB9
:101E4000510568F092C0DCC05F3FECF3983EDCF3D4
:101E5000869577956795B795F7959F5FC9F7880F32
:101E6000911D9695879597F90895E1E0660F771F84
:101E7000881FBB1F621773078407BA0720F0621B15
:101E8000730B840BBA0BEE1F88F7E095089504D00E
:101E90006894B111B5C0089598D088F09F5790F01C
:101EA000B92F9927B751A0F0D1F0660F771F881F7F
:101EB000991F1AF0BA95C9F712C0B13081F09FD0BE
:101EC000B1E008959CC0672F782F8827B85F39F05C
:101ED000B93FCCF3869577956795B395D9F73EF4DE
:101EE00090958095709561957F4F8F4F9F4F089586
:101EF000E89409C097FB3EF49095809570956195A4
:101F00007F4F8F4F9F4F9923A9F0F92F96E9BB2759
:101F10009395F695879577956795B795F111F8CFD5
:101F2000FAF4BB0F11F460FF1BC06F5F7F4F8F4F40
:101F30009F4F16C0882311F096E911C0772321F036
:101F40009EE8872F762F05C0662371F096E8862FCE
:101F500070E060E02AF09A95660F771F881FDAF725
:101F6000880F9695879597F9089597F99F6780E868
:101F700070E060E008959FEF80EC089500240A94DB
:101F80001616170618060906089500240A94121654
:101F90001306140605060895092E0394000C11F487
:101FA000882352F0BB0F40F4BF2B11F460FF04C034
:101FB0006F5F7F4F8F4F9F4F089557FD9058440F8D
:101FC000551F59F05F3F71F04795880F97FB991F98
:101FD00061F09F3F79F08795089512161306140655
:101FE000551FF2CF4695F1DF08C0161617061806E2
:101FF000991FF1CF86957105610508940895E894BD
:10200000BB2766277727CB0197F908950BD0C4CF5C
:10201000B5DF28F0BADF18F0952309F0A6CFABCFD3
:102020001124EECFCADFA0F3959FD1F3950F50E0B6
:10203000551F629FF001729FBB27F00DB11D639F7A
:10204000AA27F00DB11DAA1F649F6627B00DA11D20
:10205000661F829F2227B00DA11D621F739FB00DC6
:10206000A11D621F839FA00D611D221F749F332736
:10207000A00D611D231F849F600D211D822F762FCF
:102080006A2F11249F5750408AF0E1F088234AF0CC
:10209000EE0FFF1FBB1F661F771F881F9150504018
:1020A000A9F79E3F510570F060CFAACF5F3FECF3D8
:1020B000983EDCF3869577956795B795F795E79504
:1020C0009F5FC1F7FE2B880F911D9695879597F915
:1020D0000895DB018F939F930E94DA10BF91AF9117
:1020E000A29F800D911DA39F900DB29F900D112472
:1020F0000895991B79E004C0991F961708F0961B64
:10210000881F7A95C9F780950895AA1BBB1B51E1DA
:1021100007C0AA1FBB1FA617B70710F0A61BB70B57
:10212000881F991F5A95A9F780959095BC01CD01FC
:102130000895A1E21A2EAA1BBB1BFD010DC0AA1F08
:10214000BB1FEE1FFF1FA217B307E407F50720F020
:10215000A21BB30BE40BF50B661F771F881F991F9B
:102160001A9469F760957095809590959B01AC01E4
:10217000BD01CF010895052E97FB1EF400940E9427
:10218000D21057FD07D00E94991007FC03D04EF4DF
:102190000C94D21050954095309521953F4F4F4F5C
:1021A0005F4F089590958095709561957F4F8F4F03
:1021B0009F4F08950E94EB10A59F900DB49F900D26
:1021C000A49F800D911D11240895EE0FFF1F05900F
:1021D000F491E02D0994A29FB001B39FC001A39F89
:1021E000700D811D1124911DB29F700D811D112450
:0821F000911D0895F894FFCF42
:1021F80001000000000000008F0B0B0D110B2A0BD3
:102208001C0B6D0B0D0A006E616E00696E66006F27
:062218007666002E0000B6
:00000001FF
